{
  "_format": "hh-sol-artifact-1",
  "contractName": "Market",
  "sourceName": "contracts/market.sol",
  "abi": [
    {
      "inputs": [],
      "stateMutability": "nonpayable",
      "type": "constructor"
    },
    {
      "anonymous": false,
      "inputs": [
        {
          "indexed": true,
          "internalType": "address",
          "name": "previousOwner",
          "type": "address"
        },
        {
          "indexed": true,
          "internalType": "address",
          "name": "newOwner",
          "type": "address"
        }
      ],
      "name": "OwnershipTransferred",
      "type": "event"
    },
    {
      "anonymous": false,
      "inputs": [
        {
          "indexed": true,
          "internalType": "uint256",
          "name": "itemId",
          "type": "uint256"
        },
        {
          "indexed": true,
          "internalType": "address",
          "name": "nftContract",
          "type": "address"
        },
        {
          "indexed": true,
          "internalType": "uint256",
          "name": "tokenId",
          "type": "uint256"
        },
        {
          "indexed": false,
          "internalType": "address",
          "name": "seller",
          "type": "address"
        },
        {
          "indexed": false,
          "internalType": "address",
          "name": "holder",
          "type": "address"
        },
        {
          "indexed": false,
          "internalType": "uint256",
          "name": "price",
          "type": "uint256"
        },
        {
          "indexed": false,
          "internalType": "bool",
          "name": "sold",
          "type": "bool"
        }
      ],
      "name": "VaultItemCreated",
      "type": "event"
    },
    {
      "inputs": [
        {
          "internalType": "address",
          "name": "nftContract",
          "type": "address"
        },
        {
          "internalType": "uint256",
          "name": "itemId",
          "type": "uint256"
        }
      ],
      "name": "MarketSale",
      "outputs": [],
      "stateMutability": "payable",
      "type": "function"
    },
    {
      "inputs": [
        {
          "internalType": "address",
          "name": "nftContract",
          "type": "address"
        },
        {
          "internalType": "uint256",
          "name": "tokenId",
          "type": "uint256"
        },
        {
          "internalType": "uint256",
          "name": "price",
          "type": "uint256"
        }
      ],
      "name": "createVaultItem",
      "outputs": [],
      "stateMutability": "payable",
      "type": "function"
    },
    {
      "inputs": [],
      "name": "getAvailableNft",
      "outputs": [
        {
          "components": [
            {
              "internalType": "uint256",
              "name": "itemId",
              "type": "uint256"
            },
            {
              "internalType": "address",
              "name": "nftContract",
              "type": "address"
            },
            {
              "internalType": "uint256",
              "name": "tokenId",
              "type": "uint256"
            },
            {
              "internalType": "address payable",
              "name": "seller",
              "type": "address"
            },
            {
              "internalType": "address payable",
              "name": "holder",
              "type": "address"
            },
            {
              "internalType": "uint256",
              "name": "price",
              "type": "uint256"
            },
            {
              "internalType": "bool",
              "name": "sold",
              "type": "bool"
            }
          ],
          "internalType": "struct Market.VaultItem[]",
          "name": "",
          "type": "tuple[]"
        }
      ],
      "stateMutability": "view",
      "type": "function"
    },
    {
      "inputs": [],
      "name": "getListingFee",
      "outputs": [
        {
          "internalType": "uint256",
          "name": "",
          "type": "uint256"
        }
      ],
      "stateMutability": "view",
      "type": "function"
    },
    {
      "inputs": [],
      "name": "getMyMarketNfts",
      "outputs": [
        {
          "components": [
            {
              "internalType": "uint256",
              "name": "itemId",
              "type": "uint256"
            },
            {
              "internalType": "address",
              "name": "nftContract",
              "type": "address"
            },
            {
              "internalType": "uint256",
              "name": "tokenId",
              "type": "uint256"
            },
            {
              "internalType": "address payable",
              "name": "seller",
              "type": "address"
            },
            {
              "internalType": "address payable",
              "name": "holder",
              "type": "address"
            },
            {
              "internalType": "uint256",
              "name": "price",
              "type": "uint256"
            },
            {
              "internalType": "bool",
              "name": "sold",
              "type": "bool"
            }
          ],
          "internalType": "struct Market.VaultItem[]",
          "name": "",
          "type": "tuple[]"
        }
      ],
      "stateMutability": "view",
      "type": "function"
    },
    {
      "inputs": [],
      "name": "getMyNft",
      "outputs": [
        {
          "components": [
            {
              "internalType": "uint256",
              "name": "itemId",
              "type": "uint256"
            },
            {
              "internalType": "address",
              "name": "nftContract",
              "type": "address"
            },
            {
              "internalType": "uint256",
              "name": "tokenId",
              "type": "uint256"
            },
            {
              "internalType": "address payable",
              "name": "seller",
              "type": "address"
            },
            {
              "internalType": "address payable",
              "name": "holder",
              "type": "address"
            },
            {
              "internalType": "uint256",
              "name": "price",
              "type": "uint256"
            },
            {
              "internalType": "bool",
              "name": "sold",
              "type": "bool"
            }
          ],
          "internalType": "struct Market.VaultItem[]",
          "name": "",
          "type": "tuple[]"
        }
      ],
      "stateMutability": "view",
      "type": "function"
    },
    {
      "inputs": [],
      "name": "owner",
      "outputs": [
        {
          "internalType": "address",
          "name": "",
          "type": "address"
        }
      ],
      "stateMutability": "view",
      "type": "function"
    },
    {
      "inputs": [],
      "name": "renounceOwnership",
      "outputs": [],
      "stateMutability": "nonpayable",
      "type": "function"
    },
    {
      "inputs": [
        {
          "internalType": "address",
          "name": "newOwner",
          "type": "address"
        }
      ],
      "name": "transferOwnership",
      "outputs": [],
      "stateMutability": "nonpayable",
      "type": "function"
    },
    {
      "inputs": [],
      "name": "withdraw",
      "outputs": [],
      "stateMutability": "payable",
      "type": "function"
    }
  ],
  "bytecode": "0x60806040526608e1bc9bf04000600555661aa535d3d0c00060065534801561002657600080fd5b50600160008190555061004b61004061009160201b60201c565b61009960201b60201c565b33600460006101000a81548173ffffffffffffffffffffffffffffffffffffffff021916908373ffffffffffffffffffffffffffffffffffffffff16021790555061015f565b600033905090565b6000600160009054906101000a900473ffffffffffffffffffffffffffffffffffffffff16905081600160006101000a81548173ffffffffffffffffffffffffffffffffffffffff021916908373ffffffffffffffffffffffffffffffffffffffff1602179055508173ffffffffffffffffffffffffffffffffffffffff168173ffffffffffffffffffffffffffffffffffffffff167f8be0079c531659141344cd1fd0a4f28419497f9722a3daafe3b4186f6b6457e060405160405180910390a35050565b611cb18061016e6000396000f3fe6080604052600436106100915760003560e01c80639fd01cd1116100595780639fd01cd114610129578063a706ac2114610154578063b8fe6abe14610170578063d438b9861461019b578063f2fde38b146101c657610091565b80633ccfd60b146100965780635fec2222146100a05780636f2e30c0146100bc578063715018a6146100e75780638da5cb5b146100fe575b600080fd5b61009e6101ef565b005b6100ba60048036038101906100b591906114de565b610237565b005b3480156100c857600080fd5b506100d16104aa565b6040516100de91906116b5565b60405180910390f35b3480156100f357600080fd5b506100fc6107f8565b005b34801561010a57600080fd5b5061011361080c565b60405161012091906116e6565b60405180910390f35b34801561013557600080fd5b5061013e610836565b60405161014b91906116b5565b60405180910390f35b61016e60048036038101906101699190611701565b610b84565b005b34801561017c57600080fd5b50610185610ea2565b6040516101929190611763565b60405180910390f35b3480156101a757600080fd5b506101b0610eac565b6040516101bd91906116b5565b60405180910390f35b3480156101d257600080fd5b506101ed60048036038101906101e8919061177e565b611176565b005b6101f76111fa565b3373ffffffffffffffffffffffffffffffffffffffff166108fc479081150290604051600060405180830381858888f1935050505061023557600080fd5b565b61023f611278565b6000600760008381526020019081526020016000206005015490506000600760008481526020019081526020016000206002015490508134146102b7576040517f08c379a00000000000000000000000000000000000000000000000000000000081526004016102ae9061182e565b60405180910390fd5b6007600084815260200190815260200160002060030160009054906101000a900473ffffffffffffffffffffffffffffffffffffffff1673ffffffffffffffffffffffffffffffffffffffff166108fc349081150290604051600060405180830381858888f19350505050158015610333573d6000803e3d6000fd5b508373ffffffffffffffffffffffffffffffffffffffff166323b872dd3033846040518463ffffffff1660e01b81526004016103719392919061184e565b600060405180830381600087803b15801561038b57600080fd5b505af115801561039f573d6000803e3d6000fd5b50505050336007600085815260200190815260200160002060040160006101000a81548173ffffffffffffffffffffffffffffffffffffffff021916908373ffffffffffffffffffffffffffffffffffffffff16021790555060016007600085815260200190815260200160002060060160006101000a81548160ff02191690831515021790555061043160036112c8565b600460009054906101000a900473ffffffffffffffffffffffffffffffffffffffff1673ffffffffffffffffffffffffffffffffffffffff166108fc6005549081150290604051600060405180830381858888f1935050505015801561049b573d6000803e3d6000fd5b5050506104a66112de565b5050565b606060006104b860026112e8565b905060008060005b83811015610561573373ffffffffffffffffffffffffffffffffffffffff16600760006001846104f091906118b4565b815260200190815260200160002060040160009054906101000a900473ffffffffffffffffffffffffffffffffffffffff1673ffffffffffffffffffffffffffffffffffffffff16141561054e5760018361054b91906118b4565b92505b80806105599061190a565b9150506104c0565b5060008267ffffffffffffffff81111561057e5761057d611953565b5b6040519080825280602002602001820160405280156105b757816020015b6105a46113c4565b81526020019060019003908161059c5790505b50905060005b848110156107ed573373ffffffffffffffffffffffffffffffffffffffff16600760006001846105ed91906118b4565b815260200190815260200160002060040160009054906101000a900473ffffffffffffffffffffffffffffffffffffffff1673ffffffffffffffffffffffffffffffffffffffff1614156107da57600060018261064a91906118b4565b90506000600760008381526020019081526020016000209050806040518060e0016040529081600082015481526020016001820160009054906101000a900473ffffffffffffffffffffffffffffffffffffffff1673ffffffffffffffffffffffffffffffffffffffff1673ffffffffffffffffffffffffffffffffffffffff168152602001600282015481526020016003820160009054906101000a900473ffffffffffffffffffffffffffffffffffffffff1673ffffffffffffffffffffffffffffffffffffffff1673ffffffffffffffffffffffffffffffffffffffff1681526020016004820160009054906101000a900473ffffffffffffffffffffffffffffffffffffffff1673ffffffffffffffffffffffffffffffffffffffff1673ffffffffffffffffffffffffffffffffffffffff168152602001600582015481526020016006820160009054906101000a900460ff1615151515815250508486815181106107bd576107bc611982565b5b60200260200101819052506001856107d591906118b4565b945050505b80806107e59061190a565b9150506105bd565b508094505050505090565b6108006111fa565b61080a60006112f6565b565b6000600160009054906101000a900473ffffffffffffffffffffffffffffffffffffffff16905090565b6060600061084460026112e8565b905060008060005b838110156108ed573373ffffffffffffffffffffffffffffffffffffffff166007600060018461087c91906118b4565b815260200190815260200160002060030160009054906101000a900473ffffffffffffffffffffffffffffffffffffffff1673ffffffffffffffffffffffffffffffffffffffff1614156108da576001836108d791906118b4565b92505b80806108e59061190a565b91505061084c565b5060008267ffffffffffffffff81111561090a57610909611953565b5b60405190808252806020026020018201604052801561094357816020015b6109306113c4565b8152602001906001900390816109285790505b50905060005b84811015610b79573373ffffffffffffffffffffffffffffffffffffffff166007600060018461097991906118b4565b815260200190815260200160002060030160009054906101000a900473ffffffffffffffffffffffffffffffffffffffff1673ffffffffffffffffffffffffffffffffffffffff161415610b665760006001826109d691906118b4565b90506000600760008381526020019081526020016000209050806040518060e0016040529081600082015481526020016001820160009054906101000a900473ffffffffffffffffffffffffffffffffffffffff1673ffffffffffffffffffffffffffffffffffffffff1673ffffffffffffffffffffffffffffffffffffffff168152602001600282015481526020016003820160009054906101000a900473ffffffffffffffffffffffffffffffffffffffff1673ffffffffffffffffffffffffffffffffffffffff1673ffffffffffffffffffffffffffffffffffffffff1681526020016004820160009054906101000a900473ffffffffffffffffffffffffffffffffffffffff1673ffffffffffffffffffffffffffffffffffffffff1673ffffffffffffffffffffffffffffffffffffffff168152602001600582015481526020016006820160009054906101000a900460ff161515151581525050848681518110610b4957610b48611982565b5b6020026020010181905250600185610b6191906118b4565b945050505b8080610b719061190a565b915050610949565b508094505050505090565b610b8c611278565b60008111610bcf576040517f08c379a0000000000000000000000000000000000000000000000000000000008152600401610bc6906119fd565b60405180910390fd5b6005543414610c13576040517f08c379a0000000000000000000000000000000000000000000000000000000008152600401610c0a90611a69565b60405180910390fd5b610c1d60026112c8565b6000610c2960026112e8565b90506040518060e001604052808281526020018573ffffffffffffffffffffffffffffffffffffffff1681526020018481526020013373ffffffffffffffffffffffffffffffffffffffff168152602001600073ffffffffffffffffffffffffffffffffffffffff16815260200183815260200160001515815250600760008381526020019081526020016000206000820151816000015560208201518160010160006101000a81548173ffffffffffffffffffffffffffffffffffffffff021916908373ffffffffffffffffffffffffffffffffffffffff1602179055506040820151816002015560608201518160030160006101000a81548173ffffffffffffffffffffffffffffffffffffffff021916908373ffffffffffffffffffffffffffffffffffffffff16021790555060808201518160040160006101000a81548173ffffffffffffffffffffffffffffffffffffffff021916908373ffffffffffffffffffffffffffffffffffffffff16021790555060a0820151816005015560c08201518160060160006101000a81548160ff0219169083151502179055509050508373ffffffffffffffffffffffffffffffffffffffff166323b872dd3330866040518463ffffffff1660e01b8152600401610e0a9392919061184e565b600060405180830381600087803b158015610e2457600080fd5b505af1158015610e38573d6000803e3d6000fd5b50505050828473ffffffffffffffffffffffffffffffffffffffff16827f5f244be10a8d938e3d87696f8eb660aea498791b881de4ccb1838ba753270f18336000876000604051610e8c9493929190611a98565b60405180910390a450610e9d6112de565b505050565b6000600554905090565b60606000610eba60026112e8565b90506000610ec860036112e8565b610ed260026112e8565b610edc9190611add565b90506000808267ffffffffffffffff811115610efb57610efa611953565b5b604051908082528060200260200182016040528015610f3457816020015b610f216113c4565b815260200190600190039081610f195790505b50905060005b8481101561116b57600073ffffffffffffffffffffffffffffffffffffffff1660076000600184610f6b91906118b4565b815260200190815260200160002060040160009054906101000a900473ffffffffffffffffffffffffffffffffffffffff1673ffffffffffffffffffffffffffffffffffffffff161415611158576000600182610fc891906118b4565b90506000600760008381526020019081526020016000209050806040518060e0016040529081600082015481526020016001820160009054906101000a900473ffffffffffffffffffffffffffffffffffffffff1673ffffffffffffffffffffffffffffffffffffffff1673ffffffffffffffffffffffffffffffffffffffff168152602001600282015481526020016003820160009054906101000a900473ffffffffffffffffffffffffffffffffffffffff1673ffffffffffffffffffffffffffffffffffffffff1673ffffffffffffffffffffffffffffffffffffffff1681526020016004820160009054906101000a900473ffffffffffffffffffffffffffffffffffffffff1673ffffffffffffffffffffffffffffffffffffffff1673ffffffffffffffffffffffffffffffffffffffff168152602001600582015481526020016006820160009054906101000a900460ff16151515158152505084868151811061113b5761113a611982565b5b602002602001018190525060018561115391906118b4565b945050505b80806111639061190a565b915050610f3a565b508094505050505090565b61117e6111fa565b600073ffffffffffffffffffffffffffffffffffffffff168173ffffffffffffffffffffffffffffffffffffffff1614156111ee576040517f08c379a00000000000000000000000000000000000000000000000000000000081526004016111e590611b83565b60405180910390fd5b6111f7816112f6565b50565b6112026113bc565b73ffffffffffffffffffffffffffffffffffffffff1661122061080c565b73ffffffffffffffffffffffffffffffffffffffff1614611276576040517f08c379a000000000000000000000000000000000000000000000000000000000815260040161126d90611bef565b60405180910390fd5b565b600260005414156112be576040517f08c379a00000000000000000000000000000000000000000000000000000000081526004016112b590611c5b565b60405180910390fd5b6002600081905550565b6001816000016000828254019250508190555050565b6001600081905550565b600081600001549050919050565b6000600160009054906101000a900473ffffffffffffffffffffffffffffffffffffffff16905081600160006101000a81548173ffffffffffffffffffffffffffffffffffffffff021916908373ffffffffffffffffffffffffffffffffffffffff1602179055508173ffffffffffffffffffffffffffffffffffffffff168173ffffffffffffffffffffffffffffffffffffffff167f8be0079c531659141344cd1fd0a4f28419497f9722a3daafe3b4186f6b6457e060405160405180910390a35050565b600033905090565b6040518060e0016040528060008152602001600073ffffffffffffffffffffffffffffffffffffffff16815260200160008152602001600073ffffffffffffffffffffffffffffffffffffffff168152602001600073ffffffffffffffffffffffffffffffffffffffff168152602001600081526020016000151581525090565b600080fd5b600073ffffffffffffffffffffffffffffffffffffffff82169050919050565b60006114758261144a565b9050919050565b6114858161146a565b811461149057600080fd5b50565b6000813590506114a28161147c565b92915050565b6000819050919050565b6114bb816114a8565b81146114c657600080fd5b50565b6000813590506114d8816114b2565b92915050565b600080604083850312156114f5576114f4611445565b5b600061150385828601611493565b9250506020611514858286016114c9565b9150509250929050565b600081519050919050565b600082825260208201905092915050565b6000819050602082019050919050565b611553816114a8565b82525050565b6115628161146a565b82525050565b60006115738261144a565b9050919050565b61158381611568565b82525050565b60008115159050919050565b61159e81611589565b82525050565b60e0820160008201516115ba600085018261154a565b5060208201516115cd6020850182611559565b5060408201516115e0604085018261154a565b5060608201516115f3606085018261157a565b506080820151611606608085018261157a565b5060a082015161161960a085018261154a565b5060c082015161162c60c0850182611595565b50505050565b600061163e83836115a4565b60e08301905092915050565b6000602082019050919050565b60006116628261151e565b61166c8185611529565b93506116778361153a565b8060005b838110156116a857815161168f8882611632565b975061169a8361164a565b92505060018101905061167b565b5085935050505092915050565b600060208201905081810360008301526116cf8184611657565b905092915050565b6116e08161146a565b82525050565b60006020820190506116fb60008301846116d7565b92915050565b60008060006060848603121561171a57611719611445565b5b600061172886828701611493565b9350506020611739868287016114c9565b925050604061174a868287016114c9565b9150509250925092565b61175d816114a8565b82525050565b60006020820190506117786000830184611754565b92915050565b60006020828403121561179457611793611445565b5b60006117a284828501611493565b91505092915050565b600082825260208201905092915050565b7f4e6f7420656e6f7567682062616c616e636520746f20636f6d706c657465207460008201527f72616e73616374696f6e00000000000000000000000000000000000000000000602082015250565b6000611818602a836117ab565b9150611823826117bc565b604082019050919050565b600060208201905081810360008301526118478161180b565b9050919050565b600060608201905061186360008301866116d7565b61187060208301856116d7565b61187d6040830184611754565b949350505050565b7f4e487b7100000000000000000000000000000000000000000000000000000000600052601160045260246000fd5b60006118bf826114a8565b91506118ca836114a8565b9250827fffffffffffffffffffffffffffffffffffffffffffffffffffffffffffffffff038211156118ff576118fe611885565b5b828201905092915050565b6000611915826114a8565b91507fffffffffffffffffffffffffffffffffffffffffffffffffffffffffffffffff82141561194857611947611885565b5b600182019050919050565b7f4e487b7100000000000000000000000000000000000000000000000000000000600052604160045260246000fd5b7f4e487b7100000000000000000000000000000000000000000000000000000000600052603260045260246000fd5b7f50726963652063616e6e6f74206265207a65726f000000000000000000000000600082015250565b60006119e76014836117ab565b91506119f2826119b1565b602082019050919050565b60006020820190508181036000830152611a16816119da565b9050919050565b7f50726963652063616e6e6f74206265206c697374696e67206665650000000000600082015250565b6000611a53601b836117ab565b9150611a5e82611a1d565b602082019050919050565b60006020820190508181036000830152611a8281611a46565b9050919050565b611a9281611589565b82525050565b6000608082019050611aad60008301876116d7565b611aba60208301866116d7565b611ac76040830185611754565b611ad46060830184611a89565b95945050505050565b6000611ae8826114a8565b9150611af3836114a8565b925082821015611b0657611b05611885565b5b828203905092915050565b7f4f776e61626c653a206e6577206f776e657220697320746865207a65726f206160008201527f6464726573730000000000000000000000000000000000000000000000000000602082015250565b6000611b6d6026836117ab565b9150611b7882611b11565b604082019050919050565b60006020820190508181036000830152611b9c81611b60565b9050919050565b7f4f776e61626c653a2063616c6c6572206973206e6f7420746865206f776e6572600082015250565b6000611bd96020836117ab565b9150611be482611ba3565b602082019050919050565b60006020820190508181036000830152611c0881611bcc565b9050919050565b7f5265656e7472616e637947756172643a207265656e7472616e742063616c6c00600082015250565b6000611c45601f836117ab565b9150611c5082611c0f565b602082019050919050565b60006020820190508181036000830152611c7481611c38565b905091905056fea26469706673582212201e7ca0b0a4ec563559c22f51991553d19dfeb3a04624ab353f54ecdfb1ef674d64736f6c63430008090033",
  "linkReferences": {},
  "deployedLinkReferences": {}
}