{
  "_format": "hh-sol-artifact-1",
  "contractName": "NFT",
  "sourceName": "contracts/nft.sol",
  "abi": [
    {
      "inputs": [
        {
          "internalType": "address",
          "name": "marketContract",
          "type": "address"
        }
      ],
      "stateMutability": "nonpayable",
      "type": "constructor"
    },
    {
      "anonymous": false,
      "inputs": [
        {
          "indexed": true,
          "internalType": "address",
          "name": "owner",
          "type": "address"
        },
        {
          "indexed": true,
          "internalType": "address",
          "name": "approved",
          "type": "address"
        },
        {
          "indexed": true,
          "internalType": "uint256",
          "name": "tokenId",
          "type": "uint256"
        }
      ],
      "name": "Approval",
      "type": "event"
    },
    {
      "anonymous": false,
      "inputs": [
        {
          "indexed": true,
          "internalType": "address",
          "name": "owner",
          "type": "address"
        },
        {
          "indexed": true,
          "internalType": "address",
          "name": "operator",
          "type": "address"
        },
        {
          "indexed": false,
          "internalType": "bool",
          "name": "approved",
          "type": "bool"
        }
      ],
      "name": "ApprovalForAll",
      "type": "event"
    },
    {
      "anonymous": false,
      "inputs": [
        {
          "indexed": true,
          "internalType": "address",
          "name": "previousOwner",
          "type": "address"
        },
        {
          "indexed": true,
          "internalType": "address",
          "name": "newOwner",
          "type": "address"
        }
      ],
      "name": "OwnershipTransferred",
      "type": "event"
    },
    {
      "anonymous": false,
      "inputs": [
        {
          "indexed": true,
          "internalType": "address",
          "name": "from",
          "type": "address"
        },
        {
          "indexed": true,
          "internalType": "address",
          "name": "to",
          "type": "address"
        },
        {
          "indexed": true,
          "internalType": "uint256",
          "name": "tokenId",
          "type": "uint256"
        }
      ],
      "name": "Transfer",
      "type": "event"
    },
    {
      "inputs": [],
      "name": "_tokenIds",
      "outputs": [
        {
          "internalType": "uint256",
          "name": "_value",
          "type": "uint256"
        }
      ],
      "stateMutability": "view",
      "type": "function"
    },
    {
      "inputs": [
        {
          "internalType": "address",
          "name": "to",
          "type": "address"
        },
        {
          "internalType": "uint256",
          "name": "tokenId",
          "type": "uint256"
        }
      ],
      "name": "approve",
      "outputs": [],
      "stateMutability": "nonpayable",
      "type": "function"
    },
    {
      "inputs": [
        {
          "internalType": "address",
          "name": "owner",
          "type": "address"
        }
      ],
      "name": "balanceOf",
      "outputs": [
        {
          "internalType": "uint256",
          "name": "",
          "type": "uint256"
        }
      ],
      "stateMutability": "view",
      "type": "function"
    },
    {
      "inputs": [],
      "name": "cost",
      "outputs": [
        {
          "internalType": "uint256",
          "name": "",
          "type": "uint256"
        }
      ],
      "stateMutability": "view",
      "type": "function"
    },
    {
      "inputs": [
        {
          "internalType": "string",
          "name": "tokenURI",
          "type": "string"
        }
      ],
      "name": "createNFT",
      "outputs": [
        {
          "internalType": "uint256",
          "name": "",
          "type": "uint256"
        }
      ],
      "stateMutability": "nonpayable",
      "type": "function"
    },
    {
      "inputs": [
        {
          "internalType": "uint256",
          "name": "tokenId",
          "type": "uint256"
        }
      ],
      "name": "getApproved",
      "outputs": [
        {
          "internalType": "address",
          "name": "",
          "type": "address"
        }
      ],
      "stateMutability": "view",
      "type": "function"
    },
    {
      "inputs": [
        {
          "internalType": "address",
          "name": "owner",
          "type": "address"
        },
        {
          "internalType": "address",
          "name": "operator",
          "type": "address"
        }
      ],
      "name": "isApprovedForAll",
      "outputs": [
        {
          "internalType": "bool",
          "name": "",
          "type": "bool"
        }
      ],
      "stateMutability": "view",
      "type": "function"
    },
    {
      "inputs": [
        {
          "internalType": "string",
          "name": "tokenURI",
          "type": "string"
        }
      ],
      "name": "mintNFT",
      "outputs": [
        {
          "internalType": "uint256",
          "name": "",
          "type": "uint256"
        }
      ],
      "stateMutability": "payable",
      "type": "function"
    },
    {
      "inputs": [],
      "name": "name",
      "outputs": [
        {
          "internalType": "string",
          "name": "",
          "type": "string"
        }
      ],
      "stateMutability": "view",
      "type": "function"
    },
    {
      "inputs": [],
      "name": "owner",
      "outputs": [
        {
          "internalType": "address",
          "name": "",
          "type": "address"
        }
      ],
      "stateMutability": "view",
      "type": "function"
    },
    {
      "inputs": [
        {
          "internalType": "uint256",
          "name": "tokenId",
          "type": "uint256"
        }
      ],
      "name": "ownerOf",
      "outputs": [
        {
          "internalType": "address",
          "name": "",
          "type": "address"
        }
      ],
      "stateMutability": "view",
      "type": "function"
    },
    {
      "inputs": [],
      "name": "renounceOwnership",
      "outputs": [],
      "stateMutability": "nonpayable",
      "type": "function"
    },
    {
      "inputs": [
        {
          "internalType": "address",
          "name": "from",
          "type": "address"
        },
        {
          "internalType": "address",
          "name": "to",
          "type": "address"
        },
        {
          "internalType": "uint256",
          "name": "tokenId",
          "type": "uint256"
        }
      ],
      "name": "safeTransferFrom",
      "outputs": [],
      "stateMutability": "nonpayable",
      "type": "function"
    },
    {
      "inputs": [
        {
          "internalType": "address",
          "name": "from",
          "type": "address"
        },
        {
          "internalType": "address",
          "name": "to",
          "type": "address"
        },
        {
          "internalType": "uint256",
          "name": "tokenId",
          "type": "uint256"
        },
        {
          "internalType": "bytes",
          "name": "data",
          "type": "bytes"
        }
      ],
      "name": "safeTransferFrom",
      "outputs": [],
      "stateMutability": "nonpayable",
      "type": "function"
    },
    {
      "inputs": [
        {
          "internalType": "address",
          "name": "operator",
          "type": "address"
        },
        {
          "internalType": "bool",
          "name": "approved",
          "type": "bool"
        }
      ],
      "name": "setApprovalForAll",
      "outputs": [],
      "stateMutability": "nonpayable",
      "type": "function"
    },
    {
      "inputs": [
        {
          "internalType": "bytes4",
          "name": "interfaceId",
          "type": "bytes4"
        }
      ],
      "name": "supportsInterface",
      "outputs": [
        {
          "internalType": "bool",
          "name": "",
          "type": "bool"
        }
      ],
      "stateMutability": "view",
      "type": "function"
    },
    {
      "inputs": [],
      "name": "symbol",
      "outputs": [
        {
          "internalType": "string",
          "name": "",
          "type": "string"
        }
      ],
      "stateMutability": "view",
      "type": "function"
    },
    {
      "inputs": [
        {
          "internalType": "uint256",
          "name": "tokenId",
          "type": "uint256"
        }
      ],
      "name": "tokenURI",
      "outputs": [
        {
          "internalType": "string",
          "name": "",
          "type": "string"
        }
      ],
      "stateMutability": "view",
      "type": "function"
    },
    {
      "inputs": [
        {
          "internalType": "address",
          "name": "from",
          "type": "address"
        },
        {
          "internalType": "address",
          "name": "to",
          "type": "address"
        },
        {
          "internalType": "uint256",
          "name": "tokenId",
          "type": "uint256"
        }
      ],
      "name": "transferFrom",
      "outputs": [],
      "stateMutability": "nonpayable",
      "type": "function"
    },
    {
      "inputs": [
        {
          "internalType": "address",
          "name": "newOwner",
          "type": "address"
        }
      ],
      "name": "transferOwnership",
      "outputs": [],
      "stateMutability": "nonpayable",
      "type": "function"
    },
    {
      "inputs": [],
      "name": "withdraw",
      "outputs": [],
      "stateMutability": "payable",
      "type": "function"
    }
  ],
  "bytecode": "0x6080604052661aa535d3d0c000600a553480156200001c57600080fd5b50604051620032f4380380620032f4833981810160405281019062000042919062000332565b6040518060400160405280600681526020017f4d61726b657400000000000000000000000000000000000000000000000000008152506040518060400160405280600481526020017f4e32444d000000000000000000000000000000000000000000000000000000008152508160009080519060200190620000c692919062000218565b508060019080519060200190620000df92919062000218565b50505062000102620000f66200014a60201b60201c565b6200015260201b60201c565b80600960006101000a81548173ffffffffffffffffffffffffffffffffffffffff021916908373ffffffffffffffffffffffffffffffffffffffff16021790555050620003c9565b600033905090565b6000600760009054906101000a900473ffffffffffffffffffffffffffffffffffffffff16905081600760006101000a81548173ffffffffffffffffffffffffffffffffffffffff021916908373ffffffffffffffffffffffffffffffffffffffff1602179055508173ffffffffffffffffffffffffffffffffffffffff168173ffffffffffffffffffffffffffffffffffffffff167f8be0079c531659141344cd1fd0a4f28419497f9722a3daafe3b4186f6b6457e060405160405180910390a35050565b828054620002269062000393565b90600052602060002090601f0160209004810192826200024a576000855562000296565b82601f106200026557805160ff191683800117855562000296565b8280016001018555821562000296579182015b828111156200029557825182559160200191906001019062000278565b5b509050620002a59190620002a9565b5090565b5b80821115620002c4576000816000905550600101620002aa565b5090565b600080fd5b600073ffffffffffffffffffffffffffffffffffffffff82169050919050565b6000620002fa82620002cd565b9050919050565b6200030c81620002ed565b81146200031857600080fd5b50565b6000815190506200032c8162000301565b92915050565b6000602082840312156200034b576200034a620002c8565b5b60006200035b848285016200031b565b91505092915050565b7f4e487b7100000000000000000000000000000000000000000000000000000000600052602260045260246000fd5b60006002820490506001821680620003ac57607f821691505b60208210811415620003c357620003c262000364565b5b50919050565b612f1b80620003d96000396000f3fe60806040526004361061012a5760003560e01c8063715018a6116100ab578063b88d4fde1161006f578063b88d4fde146103bf578063c87b56dd146103e8578063da2ed03e14610425578063e985e9c514610462578063f2fde38b1461049f578063fb37e883146104c85761012a565b8063715018a6146102fe5780638da5cb5b1461031557806395d89b4114610340578063a22cb4651461036b578063aa46a400146103945761012a565b806323b872dd116100f257806323b872dd146102285780633ccfd60b1461025157806342842e0e1461025b5780636352211e1461028457806370a08231146102c15761012a565b806301ffc9a71461012f57806306fdde031461016c578063081812fc14610197578063095ea7b3146101d457806313faede6146101fd575b600080fd5b34801561013b57600080fd5b5061015660048036038101906101519190611f27565b6104f8565b6040516101639190611f6f565b60405180910390f35b34801561017857600080fd5b506101816105da565b60405161018e9190612023565b60405180910390f35b3480156101a357600080fd5b506101be60048036038101906101b9919061207b565b61066c565b6040516101cb91906120e9565b60405180910390f35b3480156101e057600080fd5b506101fb60048036038101906101f69190612130565b6106b2565b005b34801561020957600080fd5b506102126107ca565b60405161021f919061217f565b60405180910390f35b34801561023457600080fd5b5061024f600480360381019061024a919061219a565b6107d0565b005b610259610830565b005b34801561026757600080fd5b50610282600480360381019061027d919061219a565b610878565b005b34801561029057600080fd5b506102ab60048036038101906102a6919061207b565b610898565b6040516102b891906120e9565b60405180910390f35b3480156102cd57600080fd5b506102e860048036038101906102e391906121ed565b61091f565b6040516102f5919061217f565b60405180910390f35b34801561030a57600080fd5b506103136109d7565b005b34801561032157600080fd5b5061032a6109eb565b60405161033791906120e9565b60405180910390f35b34801561034c57600080fd5b50610355610a15565b6040516103629190612023565b60405180910390f35b34801561037757600080fd5b50610392600480360381019061038d9190612246565b610aa7565b005b3480156103a057600080fd5b506103a9610abd565b6040516103b6919061217f565b60405180910390f35b3480156103cb57600080fd5b506103e660048036038101906103e191906123bb565b610ac9565b005b3480156103f457600080fd5b5061040f600480360381019061040a919061207b565b610b2b565b60405161041c9190612023565b60405180910390f35b34801561043157600080fd5b5061044c600480360381019061044791906124df565b610c3e565b604051610459919061217f565b60405180910390f35b34801561046e57600080fd5b5061048960048036038101906104849190612528565b610ca2565b6040516104969190611f6f565b60405180910390f35b3480156104ab57600080fd5b506104c660048036038101906104c191906121ed565b610d36565b005b6104e260048036038101906104dd91906124df565b610dba565b6040516104ef919061217f565b60405180910390f35b60007f80ac58cd000000000000000000000000000000000000000000000000000000007bffffffffffffffffffffffffffffffffffffffffffffffffffffffff1916827bffffffffffffffffffffffffffffffffffffffffffffffffffffffff191614806105c357507f5b5e139f000000000000000000000000000000000000000000000000000000007bffffffffffffffffffffffffffffffffffffffffffffffffffffffff1916827bffffffffffffffffffffffffffffffffffffffffffffffffffffffff1916145b806105d357506105d282610e62565b5b9050919050565b6060600080546105e990612597565b80601f016020809104026020016040519081016040528092919081815260200182805461061590612597565b80156106625780601f1061063757610100808354040283529160200191610662565b820191906000526020600020905b81548152906001019060200180831161064557829003601f168201915b5050505050905090565b600061067782610ecc565b6004600083815260200190815260200160002060009054906101000a900473ffffffffffffffffffffffffffffffffffffffff169050919050565b60006106bd82610898565b90508073ffffffffffffffffffffffffffffffffffffffff168373ffffffffffffffffffffffffffffffffffffffff16141561072e576040517f08c379a00000000000000000000000000000000000000000000000000000000081526004016107259061263b565b60405180910390fd5b8073ffffffffffffffffffffffffffffffffffffffff1661074d610f17565b73ffffffffffffffffffffffffffffffffffffffff16148061077c575061077b81610776610f17565b610ca2565b5b6107bb576040517f08c379a00000000000000000000000000000000000000000000000000000000081526004016107b2906126cd565b60405180910390fd5b6107c58383610f1f565b505050565b600a5481565b6107e16107db610f17565b82610fd8565b610820576040517f08c379a00000000000000000000000000000000000000000000000000000000081526004016108179061275f565b60405180910390fd5b61082b83838361106d565b505050565b610838611367565b3373ffffffffffffffffffffffffffffffffffffffff166108fc479081150290604051600060405180830381858888f1935050505061087657600080fd5b565b61089383838360405180602001604052806000815250610ac9565b505050565b6000806108a4836113e5565b9050600073ffffffffffffffffffffffffffffffffffffffff168173ffffffffffffffffffffffffffffffffffffffff161415610916576040517f08c379a000000000000000000000000000000000000000000000000000000000815260040161090d906127cb565b60405180910390fd5b80915050919050565b60008073ffffffffffffffffffffffffffffffffffffffff168273ffffffffffffffffffffffffffffffffffffffff161415610990576040517f08c379a00000000000000000000000000000000000000000000000000000000081526004016109879061285d565b60405180910390fd5b600360008373ffffffffffffffffffffffffffffffffffffffff1673ffffffffffffffffffffffffffffffffffffffff168152602001908152602001600020549050919050565b6109df611367565b6109e96000611422565b565b6000600760009054906101000a900473ffffffffffffffffffffffffffffffffffffffff16905090565b606060018054610a2490612597565b80601f0160208091040260200160405190810160405280929190818152602001828054610a5090612597565b8015610a9d5780601f10610a7257610100808354040283529160200191610a9d565b820191906000526020600020905b815481529060010190602001808311610a8057829003601f168201915b5050505050905090565b610ab9610ab2610f17565b83836114e8565b5050565b60088060000154905081565b610ada610ad4610f17565b83610fd8565b610b19576040517f08c379a0000000000000000000000000000000000000000000000000000000008152600401610b109061275f565b60405180910390fd5b610b2584848484611655565b50505050565b6060610b3682610ecc565b6000600660008481526020019081526020016000208054610b5690612597565b80601f0160208091040260200160405190810160405280929190818152602001828054610b8290612597565b8015610bcf5780601f10610ba457610100808354040283529160200191610bcf565b820191906000526020600020905b815481529060010190602001808311610bb257829003601f168201915b505050505090506000610be06116b1565b9050600081511415610bf6578192505050610c39565b600082511115610c2b578082604051602001610c139291906128b9565b60405160208183030381529060405292505050610c39565b610c34846116c8565b925050505b919050565b6000610c4a6008611730565b6000610c566008611746565b9050610c623382611754565b610c6c8184611972565b610c99600960009054906101000a900473ffffffffffffffffffffffffffffffffffffffff166001610aa7565b80915050919050565b6000600560008473ffffffffffffffffffffffffffffffffffffffff1673ffffffffffffffffffffffffffffffffffffffff16815260200190815260200160002060008373ffffffffffffffffffffffffffffffffffffffff1673ffffffffffffffffffffffffffffffffffffffff16815260200190815260200160002060009054906101000a900460ff16905092915050565b610d3e611367565b600073ffffffffffffffffffffffffffffffffffffffff168173ffffffffffffffffffffffffffffffffffffffff161415610dae576040517f08c379a0000000000000000000000000000000000000000000000000000000008152600401610da59061294f565b60405180910390fd5b610db781611422565b50565b6000600a543414610e00576040517f08c379a0000000000000000000000000000000000000000000000000000000008152600401610df7906129bb565b60405180910390fd5b610e0a6008611730565b6000610e166008611746565b9050610e223382611754565b610e2c8184611972565b610e59600960009054906101000a900473ffffffffffffffffffffffffffffffffffffffff166001610aa7565b80915050919050565b60007f01ffc9a7000000000000000000000000000000000000000000000000000000007bffffffffffffffffffffffffffffffffffffffffffffffffffffffff1916827bffffffffffffffffffffffffffffffffffffffffffffffffffffffff1916149050919050565b610ed5816119e6565b610f14576040517f08c379a0000000000000000000000000000000000000000000000000000000008152600401610f0b906127cb565b60405180910390fd5b50565b600033905090565b816004600083815260200190815260200160002060006101000a81548173ffffffffffffffffffffffffffffffffffffffff021916908373ffffffffffffffffffffffffffffffffffffffff160217905550808273ffffffffffffffffffffffffffffffffffffffff16610f9283610898565b73ffffffffffffffffffffffffffffffffffffffff167f8c5be1e5ebec7d5bd14f71427d1e84f3dd0314c0f7b2291e5b200ac8c7c3b92560405160405180910390a45050565b600080610fe483610898565b90508073ffffffffffffffffffffffffffffffffffffffff168473ffffffffffffffffffffffffffffffffffffffff16148061102657506110258185610ca2565b5b8061106457508373ffffffffffffffffffffffffffffffffffffffff1661104c8461066c565b73ffffffffffffffffffffffffffffffffffffffff16145b91505092915050565b8273ffffffffffffffffffffffffffffffffffffffff1661108d82610898565b73ffffffffffffffffffffffffffffffffffffffff16146110e3576040517f08c379a00000000000000000000000000000000000000000000000000000000081526004016110da90612a4d565b60405180910390fd5b600073ffffffffffffffffffffffffffffffffffffffff168273ffffffffffffffffffffffffffffffffffffffff161415611153576040517f08c379a000000000000000000000000000000000000000000000000000000000815260040161114a90612adf565b60405180910390fd5b6111608383836001611a27565b8273ffffffffffffffffffffffffffffffffffffffff1661118082610898565b73ffffffffffffffffffffffffffffffffffffffff16146111d6576040517f08c379a00000000000000000000000000000000000000000000000000000000081526004016111cd90612a4d565b60405180910390fd5b6004600082815260200190815260200160002060006101000a81549073ffffffffffffffffffffffffffffffffffffffff02191690556001600360008573ffffffffffffffffffffffffffffffffffffffff1673ffffffffffffffffffffffffffffffffffffffff168152602001908152602001600020600082825403925050819055506001600360008473ffffffffffffffffffffffffffffffffffffffff1673ffffffffffffffffffffffffffffffffffffffff16815260200190815260200160002060008282540192505081905550816002600083815260200190815260200160002060006101000a81548173ffffffffffffffffffffffffffffffffffffffff021916908373ffffffffffffffffffffffffffffffffffffffff160217905550808273ffffffffffffffffffffffffffffffffffffffff168473ffffffffffffffffffffffffffffffffffffffff167fddf252ad1be2c89b69c2b068fc378daa952ba7f163c4a11628f55a4df523b3ef60405160405180910390a46113628383836001611a2d565b505050565b61136f610f17565b73ffffffffffffffffffffffffffffffffffffffff1661138d6109eb565b73ffffffffffffffffffffffffffffffffffffffff16146113e3576040517f08c379a00000000000000000000000000000000000000000000000000000000081526004016113da90612b4b565b60405180910390fd5b565b60006002600083815260200190815260200160002060009054906101000a900473ffffffffffffffffffffffffffffffffffffffff169050919050565b6000600760009054906101000a900473ffffffffffffffffffffffffffffffffffffffff16905081600760006101000a81548173ffffffffffffffffffffffffffffffffffffffff021916908373ffffffffffffffffffffffffffffffffffffffff1602179055508173ffffffffffffffffffffffffffffffffffffffff168173ffffffffffffffffffffffffffffffffffffffff167f8be0079c531659141344cd1fd0a4f28419497f9722a3daafe3b4186f6b6457e060405160405180910390a35050565b8173ffffffffffffffffffffffffffffffffffffffff168373ffffffffffffffffffffffffffffffffffffffff161415611557576040517f08c379a000000000000000000000000000000000000000000000000000000000815260040161154e90612bb7565b60405180910390fd5b80600560008573ffffffffffffffffffffffffffffffffffffffff1673ffffffffffffffffffffffffffffffffffffffff16815260200190815260200160002060008473ffffffffffffffffffffffffffffffffffffffff1673ffffffffffffffffffffffffffffffffffffffff16815260200190815260200160002060006101000a81548160ff0219169083151502179055508173ffffffffffffffffffffffffffffffffffffffff168373ffffffffffffffffffffffffffffffffffffffff167f17307eab39ab6107e8899845ad3d59bd9653f200f220920489ca2b5937696c31836040516116489190611f6f565b60405180910390a3505050565b61166084848461106d565b61166c84848484611a33565b6116ab576040517f08c379a00000000000000000000000000000000000000000000000000000000081526004016116a290612c49565b60405180910390fd5b50505050565b606060405180602001604052806000815250905090565b60606116d382610ecc565b60006116dd6116b1565b905060008151116116fd5760405180602001604052806000815250611728565b8061170784611bca565b6040516020016117189291906128b9565b6040516020818303038152906040525b915050919050565b6001816000016000828254019250508190555050565b600081600001549050919050565b600073ffffffffffffffffffffffffffffffffffffffff168273ffffffffffffffffffffffffffffffffffffffff1614156117c4576040517f08c379a00000000000000000000000000000000000000000000000000000000081526004016117bb90612cb5565b60405180910390fd5b6117cd816119e6565b1561180d576040517f08c379a000000000000000000000000000000000000000000000000000000000815260040161180490612d21565b60405180910390fd5b61181b600083836001611a27565b611824816119e6565b15611864576040517f08c379a000000000000000000000000000000000000000000000000000000000815260040161185b90612d21565b60405180910390fd5b6001600360008473ffffffffffffffffffffffffffffffffffffffff1673ffffffffffffffffffffffffffffffffffffffff16815260200190815260200160002060008282540192505081905550816002600083815260200190815260200160002060006101000a81548173ffffffffffffffffffffffffffffffffffffffff021916908373ffffffffffffffffffffffffffffffffffffffff160217905550808273ffffffffffffffffffffffffffffffffffffffff16600073ffffffffffffffffffffffffffffffffffffffff167fddf252ad1be2c89b69c2b068fc378daa952ba7f163c4a11628f55a4df523b3ef60405160405180910390a461196e600083836001611a2d565b5050565b61197b826119e6565b6119ba576040517f08c379a00000000000000000000000000000000000000000000000000000000081526004016119b190612db3565b60405180910390fd5b806006600084815260200190815260200160002090805190602001906119e1929190611e18565b505050565b60008073ffffffffffffffffffffffffffffffffffffffff16611a08836113e5565b73ffffffffffffffffffffffffffffffffffffffff1614159050919050565b50505050565b50505050565b6000611a548473ffffffffffffffffffffffffffffffffffffffff16611ca2565b15611bbd578373ffffffffffffffffffffffffffffffffffffffff1663150b7a02611a7d610f17565b8786866040518563ffffffff1660e01b8152600401611a9f9493929190612e28565b602060405180830381600087803b158015611ab957600080fd5b505af1925050508015611aea57506040513d601f19601f82011682018060405250810190611ae79190612e89565b60015b611b6d573d8060008114611b1a576040519150601f19603f3d011682016040523d82523d6000602084013e611b1f565b606091505b50600081511415611b65576040517f08c379a0000000000000000000000000000000000000000000000000000000008152600401611b5c90612c49565b60405180910390fd5b805181602001fd5b63150b7a0260e01b7bffffffffffffffffffffffffffffffffffffffffffffffffffffffff1916817bffffffffffffffffffffffffffffffffffffffffffffffffffffffff191614915050611bc2565b600190505b949350505050565b606060006001611bd984611cc5565b01905060008167ffffffffffffffff811115611bf857611bf7612290565b5b6040519080825280601f01601f191660200182016040528015611c2a5781602001600182028036833780820191505090505b509050600082602001820190505b600115611c97578080600190039150507f3031323334353637383961626364656600000000000000000000000000000000600a86061a8153600a8581611c8157611c80612eb6565b5b0494506000851415611c9257611c97565b611c38565b819350505050919050565b6000808273ffffffffffffffffffffffffffffffffffffffff163b119050919050565b600080600090507a184f03e93ff9f4daa797ed6e38ed64bf6a1f0100000000000000008310611d23577a184f03e93ff9f4daa797ed6e38ed64bf6a1f0100000000000000008381611d1957611d18612eb6565b5b0492506040810190505b6d04ee2d6d415b85acef81000000008310611d60576d04ee2d6d415b85acef81000000008381611d5657611d55612eb6565b5b0492506020810190505b662386f26fc100008310611d8f57662386f26fc100008381611d8557611d84612eb6565b5b0492506010810190505b6305f5e1008310611db8576305f5e1008381611dae57611dad612eb6565b5b0492506008810190505b6127108310611ddd576127108381611dd357611dd2612eb6565b5b0492506004810190505b60648310611e005760648381611df657611df5612eb6565b5b0492506002810190505b600a8310611e0f576001810190505b80915050919050565b828054611e2490612597565b90600052602060002090601f016020900481019282611e465760008555611e8d565b82601f10611e5f57805160ff1916838001178555611e8d565b82800160010185558215611e8d579182015b82811115611e8c578251825591602001919060010190611e71565b5b509050611e9a9190611e9e565b5090565b5b80821115611eb7576000816000905550600101611e9f565b5090565b6000604051905090565b600080fd5b600080fd5b60007fffffffff0000000000000000000000000000000000000000000000000000000082169050919050565b611f0481611ecf565b8114611f0f57600080fd5b50565b600081359050611f2181611efb565b92915050565b600060208284031215611f3d57611f3c611ec5565b5b6000611f4b84828501611f12565b91505092915050565b60008115159050919050565b611f6981611f54565b82525050565b6000602082019050611f846000830184611f60565b92915050565b600081519050919050565b600082825260208201905092915050565b60005b83811015611fc4578082015181840152602081019050611fa9565b83811115611fd3576000848401525b50505050565b6000601f19601f8301169050919050565b6000611ff582611f8a565b611fff8185611f95565b935061200f818560208601611fa6565b61201881611fd9565b840191505092915050565b6000602082019050818103600083015261203d8184611fea565b905092915050565b6000819050919050565b61205881612045565b811461206357600080fd5b50565b6000813590506120758161204f565b92915050565b60006020828403121561209157612090611ec5565b5b600061209f84828501612066565b91505092915050565b600073ffffffffffffffffffffffffffffffffffffffff82169050919050565b60006120d3826120a8565b9050919050565b6120e3816120c8565b82525050565b60006020820190506120fe60008301846120da565b92915050565b61210d816120c8565b811461211857600080fd5b50565b60008135905061212a81612104565b92915050565b6000806040838503121561214757612146611ec5565b5b60006121558582860161211b565b925050602061216685828601612066565b9150509250929050565b61217981612045565b82525050565b60006020820190506121946000830184612170565b92915050565b6000806000606084860312156121b3576121b2611ec5565b5b60006121c18682870161211b565b93505060206121d28682870161211b565b92505060406121e386828701612066565b9150509250925092565b60006020828403121561220357612202611ec5565b5b60006122118482850161211b565b91505092915050565b61222381611f54565b811461222e57600080fd5b50565b6000813590506122408161221a565b92915050565b6000806040838503121561225d5761225c611ec5565b5b600061226b8582860161211b565b925050602061227c85828601612231565b9150509250929050565b600080fd5b600080fd5b7f4e487b7100000000000000000000000000000000000000000000000000000000600052604160045260246000fd5b6122c882611fd9565b810181811067ffffffffffffffff821117156122e7576122e6612290565b5b80604052505050565b60006122fa611ebb565b905061230682826122bf565b919050565b600067ffffffffffffffff82111561232657612325612290565b5b61232f82611fd9565b9050602081019050919050565b82818337600083830152505050565b600061235e6123598461230b565b6122f0565b90508281526020810184848401111561237a5761237961228b565b5b61238584828561233c565b509392505050565b600082601f8301126123a2576123a1612286565b5b81356123b284826020860161234b565b91505092915050565b600080600080608085870312156123d5576123d4611ec5565b5b60006123e38782880161211b565b94505060206123f48782880161211b565b935050604061240587828801612066565b925050606085013567ffffffffffffffff81111561242657612425611eca565b5b6124328782880161238d565b91505092959194509250565b600067ffffffffffffffff82111561245957612458612290565b5b61246282611fd9565b9050602081019050919050565b600061248261247d8461243e565b6122f0565b90508281526020810184848401111561249e5761249d61228b565b5b6124a984828561233c565b509392505050565b600082601f8301126124c6576124c5612286565b5b81356124d684826020860161246f565b91505092915050565b6000602082840312156124f5576124f4611ec5565b5b600082013567ffffffffffffffff81111561251357612512611eca565b5b61251f848285016124b1565b91505092915050565b6000806040838503121561253f5761253e611ec5565b5b600061254d8582860161211b565b925050602061255e8582860161211b565b9150509250929050565b7f4e487b7100000000000000000000000000000000000000000000000000000000600052602260045260246000fd5b600060028204905060018216806125af57607f821691505b602082108114156125c3576125c2612568565b5b50919050565b7f4552433732313a20617070726f76616c20746f2063757272656e74206f776e6560008201527f7200000000000000000000000000000000000000000000000000000000000000602082015250565b6000612625602183611f95565b9150612630826125c9565b604082019050919050565b6000602082019050818103600083015261265481612618565b9050919050565b7f4552433732313a20617070726f76652063616c6c6572206973206e6f7420746f60008201527f6b656e206f776e6572206f7220617070726f76656420666f7220616c6c000000602082015250565b60006126b7603d83611f95565b91506126c28261265b565b604082019050919050565b600060208201905081810360008301526126e6816126aa565b9050919050565b7f4552433732313a2063616c6c6572206973206e6f7420746f6b656e206f776e6560008201527f72206f7220617070726f76656400000000000000000000000000000000000000602082015250565b6000612749602d83611f95565b9150612754826126ed565b604082019050919050565b600060208201905081810360008301526127788161273c565b9050919050565b7f4552433732313a20696e76616c696420746f6b656e2049440000000000000000600082015250565b60006127b5601883611f95565b91506127c08261277f565b602082019050919050565b600060208201905081810360008301526127e4816127a8565b9050919050565b7f4552433732313a2061646472657373207a65726f206973206e6f74206120766160008201527f6c6964206f776e65720000000000000000000000000000000000000000000000602082015250565b6000612847602983611f95565b9150612852826127eb565b604082019050919050565b600060208201905081810360008301526128768161283a565b9050919050565b600081905092915050565b600061289382611f8a565b61289d818561287d565b93506128ad818560208601611fa6565b80840191505092915050565b60006128c58285612888565b91506128d18284612888565b91508190509392505050565b7f4f776e61626c653a206e6577206f776e657220697320746865207a65726f206160008201527f6464726573730000000000000000000000000000000000000000000000000000602082015250565b6000612939602683611f95565b9150612944826128dd565b604082019050919050565b600060208201905081810360008301526129688161292c565b9050919050565b7f4e65656420746f2073656e6420302e3037352065746865722100000000000000600082015250565b60006129a5601983611f95565b91506129b08261296f565b602082019050919050565b600060208201905081810360008301526129d481612998565b9050919050565b7f4552433732313a207472616e736665722066726f6d20696e636f72726563742060008201527f6f776e6572000000000000000000000000000000000000000000000000000000602082015250565b6000612a37602583611f95565b9150612a42826129db565b604082019050919050565b60006020820190508181036000830152612a6681612a2a565b9050919050565b7f4552433732313a207472616e7366657220746f20746865207a65726f2061646460008201527f7265737300000000000000000000000000000000000000000000000000000000602082015250565b6000612ac9602483611f95565b9150612ad482612a6d565b604082019050919050565b60006020820190508181036000830152612af881612abc565b9050919050565b7f4f776e61626c653a2063616c6c6572206973206e6f7420746865206f776e6572600082015250565b6000612b35602083611f95565b9150612b4082612aff565b602082019050919050565b60006020820190508181036000830152612b6481612b28565b9050919050565b7f4552433732313a20617070726f766520746f2063616c6c657200000000000000600082015250565b6000612ba1601983611f95565b9150612bac82612b6b565b602082019050919050565b60006020820190508181036000830152612bd081612b94565b9050919050565b7f4552433732313a207472616e7366657220746f206e6f6e20455243373231526560008201527f63656976657220696d706c656d656e7465720000000000000000000000000000602082015250565b6000612c33603283611f95565b9150612c3e82612bd7565b604082019050919050565b60006020820190508181036000830152612c6281612c26565b9050919050565b7f4552433732313a206d696e7420746f20746865207a65726f2061646472657373600082015250565b6000612c9f602083611f95565b9150612caa82612c69565b602082019050919050565b60006020820190508181036000830152612cce81612c92565b9050919050565b7f4552433732313a20746f6b656e20616c7265616479206d696e74656400000000600082015250565b6000612d0b601c83611f95565b9150612d1682612cd5565b602082019050919050565b60006020820190508181036000830152612d3a81612cfe565b9050919050565b7f45524337323155524953746f726167653a2055524920736574206f66206e6f6e60008201527f6578697374656e7420746f6b656e000000000000000000000000000000000000602082015250565b6000612d9d602e83611f95565b9150612da882612d41565b604082019050919050565b60006020820190508181036000830152612dcc81612d90565b9050919050565b600081519050919050565b600082825260208201905092915050565b6000612dfa82612dd3565b612e048185612dde565b9350612e14818560208601611fa6565b612e1d81611fd9565b840191505092915050565b6000608082019050612e3d60008301876120da565b612e4a60208301866120da565b612e576040830185612170565b8181036060830152612e698184612def565b905095945050505050565b600081519050612e8381611efb565b92915050565b600060208284031215612e9f57612e9e611ec5565b5b6000612ead84828501612e74565b91505092915050565b7f4e487b7100000000000000000000000000000000000000000000000000000000600052601260045260246000fdfea2646970667358221220cd771fe62b0198992c244d5981ef3509f3400517d613aa204af444f8988d76f564736f6c63430008090033",
  "linkReferences": {},
  "deployedLinkReferences": {}
}